{
  "_format": "hh-sol-artifact-1",
  "contractName": "JacksPizzaGovernance",
  "sourceName": "contracts/JacksPizzaGovernance.sol",
  "abi": [
    {
      "inputs": [],
      "stateMutability": "nonpayable",
      "type": "constructor"
    },
    {
      "anonymous": false,
      "inputs": [
        {
          "indexed": true,
          "internalType": "address",
          "name": "previousOwner",
          "type": "address"
        },
        {
          "indexed": true,
          "internalType": "address",
          "name": "newOwner",
          "type": "address"
        }
      ],
      "name": "OwnershipTransferred",
      "type": "event"
    },
    {
      "anonymous": false,
      "inputs": [
        {
          "indexed": true,
          "internalType": "bytes32",
          "name": "role",
          "type": "bytes32"
        },
        {
          "indexed": true,
          "internalType": "bytes32",
          "name": "previousAdminRole",
          "type": "bytes32"
        },
        {
          "indexed": true,
          "internalType": "bytes32",
          "name": "newAdminRole",
          "type": "bytes32"
        }
      ],
      "name": "RoleAdminChanged",
      "type": "event"
    },
    {
      "anonymous": false,
      "inputs": [
        {
          "indexed": true,
          "internalType": "bytes32",
          "name": "role",
          "type": "bytes32"
        },
        {
          "indexed": true,
          "internalType": "address",
          "name": "account",
          "type": "address"
        },
        {
          "indexed": true,
          "internalType": "address",
          "name": "sender",
          "type": "address"
        }
      ],
      "name": "RoleGranted",
      "type": "event"
    },
    {
      "anonymous": false,
      "inputs": [
        {
          "indexed": true,
          "internalType": "bytes32",
          "name": "role",
          "type": "bytes32"
        },
        {
          "indexed": true,
          "internalType": "address",
          "name": "account",
          "type": "address"
        },
        {
          "indexed": true,
          "internalType": "address",
          "name": "sender",
          "type": "address"
        }
      ],
      "name": "RoleRevoked",
      "type": "event"
    },
    {
      "inputs": [],
      "name": "DEFAULT_ADMIN_ROLE",
      "outputs": [
        {
          "internalType": "bytes32",
          "name": "",
          "type": "bytes32"
        }
      ],
      "stateMutability": "view",
      "type": "function"
    },
    {
      "inputs": [],
      "name": "EMPLOYEE_ROLE",
      "outputs": [
        {
          "internalType": "bytes32",
          "name": "",
          "type": "bytes32"
        }
      ],
      "stateMutability": "view",
      "type": "function"
    },
    {
      "inputs": [
        {
          "internalType": "address",
          "name": "employee",
          "type": "address"
        }
      ],
      "name": "addEmployee",
      "outputs": [
        {
          "internalType": "bool",
          "name": "",
          "type": "bool"
        }
      ],
      "stateMutability": "nonpayable",
      "type": "function"
    },
    {
      "inputs": [
        {
          "internalType": "address",
          "name": "from",
          "type": "address"
        },
        {
          "internalType": "uint256",
          "name": "amount",
          "type": "uint256"
        }
      ],
      "name": "burnEmployeeTokens",
      "outputs": [],
      "stateMutability": "nonpayable",
      "type": "function"
    },
    {
      "inputs": [
        {
          "internalType": "uint256",
          "name": "",
          "type": "uint256"
        }
      ],
      "name": "erc20_employee_token_addresses",
      "outputs": [
        {
          "internalType": "address",
          "name": "",
          "type": "address"
        }
      ],
      "stateMutability": "view",
      "type": "function"
    },
    {
      "inputs": [
        {
          "internalType": "address",
          "name": "account",
          "type": "address"
        }
      ],
      "name": "getBalanceOf",
      "outputs": [
        {
          "internalType": "uint256",
          "name": "",
          "type": "uint256"
        }
      ],
      "stateMutability": "view",
      "type": "function"
    },
    {
      "inputs": [],
      "name": "getErc20EmployeeTokenAddress",
      "outputs": [
        {
          "internalType": "address",
          "name": "",
          "type": "address"
        }
      ],
      "stateMutability": "view",
      "type": "function"
    },
    {
      "inputs": [
        {
          "internalType": "bytes32",
          "name": "role",
          "type": "bytes32"
        }
      ],
      "name": "getRoleAdmin",
      "outputs": [
        {
          "internalType": "bytes32",
          "name": "",
          "type": "bytes32"
        }
      ],
      "stateMutability": "view",
      "type": "function"
    },
    {
      "inputs": [
        {
          "internalType": "bytes32",
          "name": "role",
          "type": "bytes32"
        },
        {
          "internalType": "address",
          "name": "account",
          "type": "address"
        }
      ],
      "name": "grantRole",
      "outputs": [],
      "stateMutability": "nonpayable",
      "type": "function"
    },
    {
      "inputs": [
        {
          "internalType": "address",
          "name": "employee",
          "type": "address"
        }
      ],
      "name": "hasEmployee",
      "outputs": [
        {
          "internalType": "bool",
          "name": "",
          "type": "bool"
        }
      ],
      "stateMutability": "view",
      "type": "function"
    },
    {
      "inputs": [
        {
          "internalType": "bytes32",
          "name": "role",
          "type": "bytes32"
        },
        {
          "internalType": "address",
          "name": "account",
          "type": "address"
        }
      ],
      "name": "hasRole",
      "outputs": [
        {
          "internalType": "bool",
          "name": "",
          "type": "bool"
        }
      ],
      "stateMutability": "view",
      "type": "function"
    },
    {
      "inputs": [
        {
          "internalType": "address",
          "name": "from",
          "type": "address"
        },
        {
          "internalType": "address[]",
          "name": "to_addresses",
          "type": "address[]"
        },
        {
          "internalType": "uint256[]",
          "name": "amounts",
          "type": "uint256[]"
        }
      ],
      "name": "multisendEmployeeTokens",
      "outputs": [
        {
          "internalType": "bool",
          "name": "success",
          "type": "bool"
        }
      ],
      "stateMutability": "nonpayable",
      "type": "function"
    },
    {
      "inputs": [],
      "name": "owner",
      "outputs": [
        {
          "internalType": "address",
          "name": "",
          "type": "address"
        }
      ],
      "stateMutability": "view",
      "type": "function"
    },
    {
      "inputs": [
        {
          "internalType": "address",
          "name": "employee",
          "type": "address"
        }
      ],
      "name": "removeEmployee",
      "outputs": [
        {
          "internalType": "bool",
          "name": "",
          "type": "bool"
        }
      ],
      "stateMutability": "nonpayable",
      "type": "function"
    },
    {
      "inputs": [],
      "name": "renounceOwnership",
      "outputs": [],
      "stateMutability": "nonpayable",
      "type": "function"
    },
    {
      "inputs": [
        {
          "internalType": "bytes32",
          "name": "role",
          "type": "bytes32"
        },
        {
          "internalType": "address",
          "name": "account",
          "type": "address"
        }
      ],
      "name": "renounceRole",
      "outputs": [],
      "stateMutability": "nonpayable",
      "type": "function"
    },
    {
      "inputs": [
        {
          "internalType": "bytes32",
          "name": "role",
          "type": "bytes32"
        },
        {
          "internalType": "address",
          "name": "account",
          "type": "address"
        }
      ],
      "name": "revokeRole",
      "outputs": [],
      "stateMutability": "nonpayable",
      "type": "function"
    },
    {
      "inputs": [
        {
          "internalType": "address",
          "name": "newTokenAddress",
          "type": "address"
        }
      ],
      "name": "setErc20EmployeeTokenAddress",
      "outputs": [
        {
          "internalType": "address",
          "name": "",
          "type": "address"
        }
      ],
      "stateMutability": "nonpayable",
      "type": "function"
    },
    {
      "inputs": [
        {
          "internalType": "address",
          "name": "newOwner",
          "type": "address"
        }
      ],
      "name": "setOwnershipOfEmployeeTokenContract",
      "outputs": [
        {
          "internalType": "address",
          "name": "",
          "type": "address"
        }
      ],
      "stateMutability": "nonpayable",
      "type": "function"
    },
    {
      "inputs": [
        {
          "internalType": "bytes4",
          "name": "interfaceId",
          "type": "bytes4"
        }
      ],
      "name": "supportsInterface",
      "outputs": [
        {
          "internalType": "bool",
          "name": "",
          "type": "bool"
        }
      ],
      "stateMutability": "view",
      "type": "function"
    },
    {
      "inputs": [
        {
          "internalType": "address",
          "name": "from",
          "type": "address"
        },
        {
          "internalType": "address",
          "name": "to",
          "type": "address"
        },
        {
          "internalType": "uint256",
          "name": "amount",
          "type": "uint256"
        }
      ],
      "name": "transferEmployeeTokens",
      "outputs": [],
      "stateMutability": "nonpayable",
      "type": "function"
    },
    {
      "inputs": [
        {
          "internalType": "address",
          "name": "newOwner",
          "type": "address"
        }
      ],
      "name": "transferOwnership",
      "outputs": [],
      "stateMutability": "nonpayable",
      "type": "function"
    }
  ],
  "bytecode": "0x60806040523480156200001157600080fd5b5062000032620000266200004d60201b60201c565b6200005560201b60201c565b620000476000801b336200011960201b60201c565b6200028b565b600033905090565b60008060009054906101000a900473ffffffffffffffffffffffffffffffffffffffff169050816000806101000a81548173ffffffffffffffffffffffffffffffffffffffff021916908373ffffffffffffffffffffffffffffffffffffffff1602179055508173ffffffffffffffffffffffffffffffffffffffff168173ffffffffffffffffffffffffffffffffffffffff167f8be0079c531659141344cd1fd0a4f28419497f9722a3daafe3b4186f6b6457e060405160405180910390a35050565b6200012b82826200012f60201b60201c565b5050565b6200014182826200022060201b60201c565b6200021c57600180600084815260200190815260200160002060000160008373ffffffffffffffffffffffffffffffffffffffff1673ffffffffffffffffffffffffffffffffffffffff16815260200190815260200160002060006101000a81548160ff021916908315150217905550620001c16200004d60201b60201c565b73ffffffffffffffffffffffffffffffffffffffff168173ffffffffffffffffffffffffffffffffffffffff16837f2f8788117e7eff1d82e926ec794901d17c78024a50270940304540a733656f0d60405160405180910390a45b5050565b60006001600084815260200190815260200160002060000160008373ffffffffffffffffffffffffffffffffffffffff1673ffffffffffffffffffffffffffffffffffffffff16815260200190815260200160002060009054906101000a900460ff16905092915050565b612f42806200029b6000396000f3fe608060405234801561001057600080fd5b50600436106101425760003560e01c806391d14854116100b8578063c99f043c1161007c578063c99f043c14610389578063d108177a146103b9578063d547741f146103e9578063f2fde38b14610405578063f3cb8c3114610421578063f85eace91461045157610142565b806391d14854146102bf5780639b96eece146102ef578063a217fddf1461031f578063a6e3f6331461033d578063a8867cc91461035957610142565b806336568abe1161010a57806336568abe1461021157806363f212501461022d578063671ef6bd1461024b578063715018a6146102675780637ded8458146102715780638da5cb5b146102a157610142565b806301ffc9a71461014757806307716dd214610177578063248a9ca3146101a75780632a4cab90146101d75780632f2ff15d146101f5575b600080fd5b610161600480360381019061015c9190612124565b610481565b60405161016e919061291f565b60405180910390f35b610191600480360381019061018c9190611f63565b6104fb565b60405161019e919061291f565b60405180910390f35b6101c160048036038101906101bc91906120bf565b61052e565b6040516101ce919061293a565b60405180910390f35b6101df61054e565b6040516101ec919061293a565b60405180910390f35b61020f600480360381019061020a91906120e8565b610572565b005b61022b600480360381019061022691906120e8565b61059b565b005b61023561061e565b604051610242919061285f565b60405180910390f35b6102656004803603810190610260919061205a565b61069b565b005b61026f610916565b005b61028b6004803603810190610286919061214d565b61099e565b604051610298919061285f565b60405180910390f35b6102a96109dd565b6040516102b6919061285f565b60405180910390f35b6102d960048036038101906102d491906120e8565b610a06565b6040516102e6919061291f565b60405180910390f35b61030960048036038101906103049190611f63565b610a71565b6040516103169190612af7565b60405180910390f35b610327610b0f565b604051610334919061293a565b60405180910390f35b61035760048036038101906103529190611f8c565b610b16565b005b610373600480360381019061036e9190611f63565b610dfd565b604051610380919061285f565b60405180910390f35b6103a3600480360381019061039e9190611fdb565b610efb565b6040516103b0919061291f565b60405180910390f35b6103d360048036038101906103ce9190611f63565b611396565b6040516103e0919061291f565b60405180910390f35b61040360048036038101906103fe91906120e8565b611447565b005b61041f600480360381019061041a9190611f63565b611470565b005b61043b60048036038101906104369190611f63565b611568565b604051610448919061291f565b60405180910390f35b61046b60048036038101906104669190611f63565b611619565b604051610478919061285f565b60405180910390f35b60007f7965db0b000000000000000000000000000000000000000000000000000000007bffffffffffffffffffffffffffffffffffffffffffffffffffffffff1916827bffffffffffffffffffffffffffffffffffffffffffffffffffffffff191614806104f457506104f382611702565b5b9050919050565b60006105277f5a3425ea67e73c95853ecfc0c443062de292a303c186bc2aac1178ae1b86c62a83610a06565b9050919050565b600060016000838152602001908152602001600020600101549050919050565b7f5a3425ea67e73c95853ecfc0c443062de292a303c186bc2aac1178ae1b86c62a81565b61057b8261052e565b61058c8161058761176c565b611774565b6105968383611811565b505050565b6105a361176c565b73ffffffffffffffffffffffffffffffffffffffff168173ffffffffffffffffffffffffffffffffffffffff1614610610576040517f08c379a000000000000000000000000000000000000000000000000000000000815260040161060790612ad7565b60405180910390fd5b61061a82826118f1565b5050565b6000600260016002805490506106349190612ce4565b8154811061066b577f4e487b7100000000000000000000000000000000000000000000000000000000600052603260045260246000fd5b9060005260206000200160009054906101000a900473ffffffffffffffffffffffffffffffffffffffff16905090565b3373ffffffffffffffffffffffffffffffffffffffff168273ffffffffffffffffffffffffffffffffffffffff16148061070757506106d86109dd565b73ffffffffffffffffffffffffffffffffffffffff163373ffffffffffffffffffffffffffffffffffffffff16145b610746576040517f08c379a000000000000000000000000000000000000000000000000000000000815260040161073d90612a77565b60405180910390fd5b6107707f5a3425ea67e73c95853ecfc0c443062de292a303c186bc2aac1178ae1b86c62a33610a06565b806107ad575061077e6109dd565b73ffffffffffffffffffffffffffffffffffffffff163373ffffffffffffffffffffffffffffffffffffffff16145b6107ec576040517f08c379a00000000000000000000000000000000000000000000000000000000081526004016107e390612a17565b60405180910390fd5b6108167f5a3425ea67e73c95853ecfc0c443062de292a303c186bc2aac1178ae1b86c62a83610a06565b610855576040517f08c379a000000000000000000000000000000000000000000000000000000000815260040161084c90612a57565b60405180910390fd5b60008111610898576040517f08c379a000000000000000000000000000000000000000000000000000000000815260040161088f906129f7565b60405180910390fd5b60006108a261061e565b90508073ffffffffffffffffffffffffffffffffffffffff16639dc29fac84846040518363ffffffff1660e01b81526004016108df9291906128f6565b600060405180830381600087803b1580156108f957600080fd5b505af115801561090d573d6000803e3d6000fd5b50505050505050565b61091e61176c565b73ffffffffffffffffffffffffffffffffffffffff1661093c6109dd565b73ffffffffffffffffffffffffffffffffffffffff1614610992576040517f08c379a000000000000000000000000000000000000000000000000000000000815260040161098990612a37565b60405180910390fd5b61099c60006119d3565b565b600281815481106109ae57600080fd5b906000526020600020016000915054906101000a900473ffffffffffffffffffffffffffffffffffffffff1681565b60008060009054906101000a900473ffffffffffffffffffffffffffffffffffffffff16905090565b60006001600084815260200190815260200160002060000160008373ffffffffffffffffffffffffffffffffffffffff1673ffffffffffffffffffffffffffffffffffffffff16815260200190815260200160002060009054906101000a900460ff16905092915050565b600080610a7c61061e565b90508073ffffffffffffffffffffffffffffffffffffffff166370a08231846040518263ffffffff1660e01b8152600401610ab7919061285f565b60206040518083038186803b158015610acf57600080fd5b505afa158015610ae3573d6000803e3d6000fd5b505050506040513d601f19601f82011682018060405250810190610b079190612176565b915050919050565b6000801b81565b3373ffffffffffffffffffffffffffffffffffffffff168373ffffffffffffffffffffffffffffffffffffffff161480610b825750610b536109dd565b73ffffffffffffffffffffffffffffffffffffffff163373ffffffffffffffffffffffffffffffffffffffff16145b610bc1576040517f08c379a0000000000000000000000000000000000000000000000000000000008152600401610bb890612a77565b60405180910390fd5b610beb7f5a3425ea67e73c95853ecfc0c443062de292a303c186bc2aac1178ae1b86c62a33610a06565b80610c285750610bf96109dd565b73ffffffffffffffffffffffffffffffffffffffff163373ffffffffffffffffffffffffffffffffffffffff16145b610c67576040517f08c379a0000000000000000000000000000000000000000000000000000000008152600401610c5e90612a17565b60405180910390fd5b610c917f5a3425ea67e73c95853ecfc0c443062de292a303c186bc2aac1178ae1b86c62a84610a06565b610cd0576040517f08c379a0000000000000000000000000000000000000000000000000000000008152600401610cc790612a57565b60405180910390fd5b610cfa7f5a3425ea67e73c95853ecfc0c443062de292a303c186bc2aac1178ae1b86c62a83610a06565b610d39576040517f08c379a0000000000000000000000000000000000000000000000000000000008152600401610d3090612997565b60405180910390fd5b60008111610d7c576040517f08c379a0000000000000000000000000000000000000000000000000000000008152600401610d73906129f7565b60405180910390fd5b6000610d8661061e565b90508073ffffffffffffffffffffffffffffffffffffffff1663beabacc88585856040518463ffffffff1660e01b8152600401610dc59392919061287a565b600060405180830381600087803b158015610ddf57600080fd5b505af1158015610df3573d6000803e3d6000fd5b5050505050505050565b6000610e0761176c565b73ffffffffffffffffffffffffffffffffffffffff16610e256109dd565b73ffffffffffffffffffffffffffffffffffffffff1614610e7b576040517f08c379a0000000000000000000000000000000000000000000000000000000008152600401610e7290612a37565b60405180910390fd5b6000610e8561061e565b90508073ffffffffffffffffffffffffffffffffffffffff1663f2fde38b846040518263ffffffff1660e01b8152600401610ec0919061285f565b600060405180830381600087803b158015610eda57600080fd5b505af1158015610eee573d6000803e3d6000fd5b5050505082915050919050565b60003373ffffffffffffffffffffffffffffffffffffffff168473ffffffffffffffffffffffffffffffffffffffff161480610f695750610f3a6109dd565b73ffffffffffffffffffffffffffffffffffffffff163373ffffffffffffffffffffffffffffffffffffffff16145b610fa8576040517f08c379a0000000000000000000000000000000000000000000000000000000008152600401610f9f90612a77565b60405180910390fd5b610fd27f5a3425ea67e73c95853ecfc0c443062de292a303c186bc2aac1178ae1b86c62a33610a06565b8061100f5750610fe06109dd565b73ffffffffffffffffffffffffffffffffffffffff163373ffffffffffffffffffffffffffffffffffffffff16145b61104e576040517f08c379a000000000000000000000000000000000000000000000000000000000815260040161104590612a17565b60405180910390fd5b6110787f5a3425ea67e73c95853ecfc0c443062de292a303c186bc2aac1178ae1b86c62a85610a06565b6110b7576040517f08c379a00000000000000000000000000000000000000000000000000000000081526004016110ae90612a57565b60405180910390fd5b6000805b84518160ff1610156111de576111347f5a3425ea67e73c95853ecfc0c443062de292a303c186bc2aac1178ae1b86c62a868360ff1681518110611127577f4e487b7100000000000000000000000000000000000000000000000000000000600052603260045260246000fd5b6020026020010151610a06565b611173576040517f08c379a000000000000000000000000000000000000000000000000000000000815260040161116a90612ab7565b60405180910390fd5b6111c9848260ff16815181106111b2577f4e487b7100000000000000000000000000000000000000000000000000000000600052603260045260246000fd5b602002602001015183611a9790919063ffffffff16565b915080806111d690612e00565b9150506110bb565b5060006111e961061e565b90506000821161122e576040517f08c379a0000000000000000000000000000000000000000000000000000000008152600401611225906129d7565b60405180910390fd5b8073ffffffffffffffffffffffffffffffffffffffff166370a08231876040518263ffffffff1660e01b8152600401611267919061285f565b60206040518083038186803b15801561127f57600080fd5b505afa158015611293573d6000803e3d6000fd5b505050506040513d601f19601f820116820180604052508101906112b79190612176565b8211156112f9576040517f08c379a00000000000000000000000000000000000000000000000000000000081526004016112f090612a97565b60405180910390fd5b8073ffffffffffffffffffffffffffffffffffffffff1663ad8733ca8787876040518463ffffffff1660e01b8152600401611336939291906128b1565b602060405180830381600087803b15801561135057600080fd5b505af1158015611364573d6000803e3d6000fd5b505050506040513d601f19601f820116820180604052508101906113889190612096565b506001925050509392505050565b60006113a061176c565b73ffffffffffffffffffffffffffffffffffffffff166113be6109dd565b73ffffffffffffffffffffffffffffffffffffffff1614611414576040517f08c379a000000000000000000000000000000000000000000000000000000000815260040161140b90612a37565b60405180910390fd5b61143e7f5a3425ea67e73c95853ecfc0c443062de292a303c186bc2aac1178ae1b86c62a83611447565b60019050919050565b6114508261052e565b6114618161145c61176c565b611774565b61146b83836118f1565b505050565b61147861176c565b73ffffffffffffffffffffffffffffffffffffffff166114966109dd565b73ffffffffffffffffffffffffffffffffffffffff16146114ec576040517f08c379a00000000000000000000000000000000000000000000000000000000081526004016114e390612a37565b60405180910390fd5b600073ffffffffffffffffffffffffffffffffffffffff168173ffffffffffffffffffffffffffffffffffffffff16141561155c576040517f08c379a0000000000000000000000000000000000000000000000000000000008152600401611553906129b7565b60405180910390fd5b611565816119d3565b50565b600061157261176c565b73ffffffffffffffffffffffffffffffffffffffff166115906109dd565b73ffffffffffffffffffffffffffffffffffffffff16146115e6576040517f08c379a00000000000000000000000000000000000000000000000000000000081526004016115dd90612a37565b60405180910390fd5b6116107f5a3425ea67e73c95853ecfc0c443062de292a303c186bc2aac1178ae1b86c62a83610572565b60019050919050565b600061162361176c565b73ffffffffffffffffffffffffffffffffffffffff166116416109dd565b73ffffffffffffffffffffffffffffffffffffffff1614611697576040517f08c379a000000000000000000000000000000000000000000000000000000000815260040161168e90612a37565b60405180910390fd5b6002829080600181540180825580915050600190039060005260206000200160009091909190916101000a81548173ffffffffffffffffffffffffffffffffffffffff021916908373ffffffffffffffffffffffffffffffffffffffff160217905550819050919050565b60007f01ffc9a7000000000000000000000000000000000000000000000000000000007bffffffffffffffffffffffffffffffffffffffffffffffffffffffff1916827bffffffffffffffffffffffffffffffffffffffffffffffffffffffff1916149050919050565b600033905090565b61177e8282610a06565b61180d576117a38173ffffffffffffffffffffffffffffffffffffffff166014611abf565b6117b18360001c6020611abf565b6040516020016117c2929190612825565b6040516020818303038152906040526040517f08c379a00000000000000000000000000000000000000000000000000000000081526004016118049190612955565b60405180910390fd5b5050565b61181b8282610a06565b6118ed57600180600084815260200190815260200160002060000160008373ffffffffffffffffffffffffffffffffffffffff1673ffffffffffffffffffffffffffffffffffffffff16815260200190815260200160002060006101000a81548160ff02191690831515021790555061189261176c565b73ffffffffffffffffffffffffffffffffffffffff168173ffffffffffffffffffffffffffffffffffffffff16837f2f8788117e7eff1d82e926ec794901d17c78024a50270940304540a733656f0d60405160405180910390a45b5050565b6118fb8282610a06565b156119cf5760006001600084815260200190815260200160002060000160008373ffffffffffffffffffffffffffffffffffffffff1673ffffffffffffffffffffffffffffffffffffffff16815260200190815260200160002060006101000a81548160ff02191690831515021790555061197461176c565b73ffffffffffffffffffffffffffffffffffffffff168173ffffffffffffffffffffffffffffffffffffffff16837ff6391f5c32d9c69d2a47ea670b442974b53935d1edc7fd64eb21e047a839171b60405160405180910390a45b5050565b60008060009054906101000a900473ffffffffffffffffffffffffffffffffffffffff169050816000806101000a81548173ffffffffffffffffffffffffffffffffffffffff021916908373ffffffffffffffffffffffffffffffffffffffff1602179055508173ffffffffffffffffffffffffffffffffffffffff168173ffffffffffffffffffffffffffffffffffffffff167f8be0079c531659141344cd1fd0a4f28419497f9722a3daafe3b4186f6b6457e060405160405180910390a35050565b6000808284611aa69190612c34565b905083811015611ab557600080fd5b8091505092915050565b606060006002836002611ad29190612c8a565b611adc9190612c34565b67ffffffffffffffff811115611b1b577f4e487b7100000000000000000000000000000000000000000000000000000000600052604160045260246000fd5b6040519080825280601f01601f191660200182016040528015611b4d5781602001600182028036833780820191505090505b5090507f300000000000000000000000000000000000000000000000000000000000000081600081518110611bab577f4e487b7100000000000000000000000000000000000000000000000000000000600052603260045260246000fd5b60200101907effffffffffffffffffffffffffffffffffffffffffffffffffffffffffffff1916908160001a9053507f780000000000000000000000000000000000000000000000000000000000000081600181518110611c35577f4e487b7100000000000000000000000000000000000000000000000000000000600052603260045260246000fd5b60200101907effffffffffffffffffffffffffffffffffffffffffffffffffffffffffffff1916908160001a90535060006001846002611c759190612c8a565b611c7f9190612c34565b90505b6001811115611d6b577f3031323334353637383961626364656600000000000000000000000000000000600f861660108110611ce7577f4e487b7100000000000000000000000000000000000000000000000000000000600052603260045260246000fd5b1a60f81b828281518110611d24577f4e487b7100000000000000000000000000000000000000000000000000000000600052603260045260246000fd5b60200101907effffffffffffffffffffffffffffffffffffffffffffffffffffffffffffff1916908160001a905350600485901c945080611d6490612dd6565b9050611c82565b5060008414611daf576040517f08c379a0000000000000000000000000000000000000000000000000000000008152600401611da690612977565b60405180910390fd5b8091505092915050565b6000611dcc611dc784612b43565b612b12565b90508083825260208201905082856020860282011115611deb57600080fd5b60005b85811015611e1b5781611e018882611e91565b845260208401935060208301925050600181019050611dee565b5050509392505050565b6000611e38611e3384612b6f565b612b12565b90508083825260208201905082856020860282011115611e5757600080fd5b60005b85811015611e875781611e6d8882611f39565b845260208401935060208301925050600181019050611e5a565b5050509392505050565b600081359050611ea081612e99565b92915050565b600082601f830112611eb757600080fd5b8135611ec7848260208601611db9565b91505092915050565b600082601f830112611ee157600080fd5b8135611ef1848260208601611e25565b91505092915050565b600081519050611f0981612eb0565b92915050565b600081359050611f1e81612ec7565b92915050565b600081359050611f3381612ede565b92915050565b600081359050611f4881612ef5565b92915050565b600081519050611f5d81612ef5565b92915050565b600060208284031215611f7557600080fd5b6000611f8384828501611e91565b91505092915050565b600080600060608486031215611fa157600080fd5b6000611faf86828701611e91565b9350506020611fc086828701611e91565b9250506040611fd186828701611f39565b9150509250925092565b600080600060608486031215611ff057600080fd5b6000611ffe86828701611e91565b935050602084013567ffffffffffffffff81111561201b57600080fd5b61202786828701611ea6565b925050604084013567ffffffffffffffff81111561204457600080fd5b61205086828701611ed0565b9150509250925092565b6000806040838503121561206d57600080fd5b600061207b85828601611e91565b925050602061208c85828601611f39565b9150509250929050565b6000602082840312156120a857600080fd5b60006120b684828501611efa565b91505092915050565b6000602082840312156120d157600080fd5b60006120df84828501611f0f565b91505092915050565b600080604083850312156120fb57600080fd5b600061210985828601611f0f565b925050602061211a85828601611e91565b9150509250929050565b60006020828403121561213657600080fd5b600061214484828501611f24565b91505092915050565b60006020828403121561215f57600080fd5b600061216d84828501611f39565b91505092915050565b60006020828403121561218857600080fd5b600061219684828501611f4e565b91505092915050565b60006121ab83836121cf565b60208301905092915050565b60006121c38383612807565b60208301905092915050565b6121d881612d18565b82525050565b6121e781612d18565b82525050565b60006121f882612bbb565b6122028185612bf6565b935061220d83612b9b565b8060005b8381101561223e578151612225888261219f565b975061223083612bdc565b925050600181019050612211565b5085935050505092915050565b600061225682612bc6565b6122608185612c07565b935061226b83612bab565b8060005b8381101561229c57815161228388826121b7565b975061228e83612be9565b92505060018101905061226f565b5085935050505092915050565b6122b281612d2a565b82525050565b6122c181612d36565b82525050565b60006122d282612bd1565b6122dc8185612c18565b93506122ec818560208601612da3565b6122f581612e88565b840191505092915050565b600061230b82612bd1565b6123158185612c29565b9350612325818560208601612da3565b80840191505092915050565b600061233e602083612c18565b91507f537472696e67733a20686578206c656e67746820696e73756666696369656e746000830152602082019050919050565b600061237e602a83612c18565b91507f746f206973206e6f7420616e20656d706c6f796565206f662074686973206f7260008301527f67616e697a6174696f6e000000000000000000000000000000000000000000006020830152604082019050919050565b60006123e4602683612c18565b91507f4f776e61626c653a206e6577206f776e657220697320746865207a65726f206160008301527f64647265737300000000000000000000000000000000000000000000000000006020830152604082019050919050565b600061244a602d83612c18565b91507f546f74616c206d756c746973656e6420616d6f756e74206d757374206265206760008301527f726561746572207468616e2030000000000000000000000000000000000000006020830152604082019050919050565b60006124b0601d83612c18565b91507f416d6f756e74206d7573742062652067726561746572207468616e20300000006000830152602082019050919050565b60006124f0602683612c18565b91507f43616c6c6572206973206e6f7420616e20656d706c6f796565206f722074686560008301527f206f776e657200000000000000000000000000000000000000000000000000006020830152604082019050919050565b6000612556602083612c18565b91507f4f776e61626c653a2063616c6c6572206973206e6f7420746865206f776e65726000830152602082019050919050565b6000612596602c83612c18565b91507f66726f6d206973206e6f7420616e20656d706c6f796565206f6620746869732060008301527f6f7267616e697a6174696f6e00000000000000000000000000000000000000006020830152604082019050919050565b60006125fc602183612c18565b91507f596f752063616e206f6e6c792073656e6420796f7572206f776e20746f6b656e60008301527f73000000000000000000000000000000000000000000000000000000000000006020830152604082019050919050565b6000612662603a83612c18565b91507f546f74616c206d756c746973656e6420616d6f756e742069732067726561746560008301527f72207468616e206f776e657220746f6b656e2062616c616e63650000000000006020830152604082019050919050565b60006126c8601783612c29565b91507f416363657373436f6e74726f6c3a206163636f756e74200000000000000000006000830152601782019050919050565b6000612708603f83612c18565b91507f6174206c65617374206f6e6520746f5f61646472657373206973206e6f74206160008301527f6e20656d706c6f796565206f662074686973206f7267616e697a6174696f6e006020830152604082019050919050565b600061276e601183612c29565b91507f206973206d697373696e6720726f6c65200000000000000000000000000000006000830152601182019050919050565b60006127ae602f83612c18565b91507f416363657373436f6e74726f6c3a2063616e206f6e6c792072656e6f756e636560008301527f20726f6c657320666f722073656c6600000000000000000000000000000000006020830152604082019050919050565b61281081612d8c565b82525050565b61281f81612d8c565b82525050565b6000612830826126bb565b915061283c8285612300565b915061284782612761565b91506128538284612300565b91508190509392505050565b600060208201905061287460008301846121de565b92915050565b600060608201905061288f60008301866121de565b61289c60208301856121de565b6128a96040830184612816565b949350505050565b60006060820190506128c660008301866121de565b81810360208301526128d881856121ed565b905081810360408301526128ec818461224b565b9050949350505050565b600060408201905061290b60008301856121de565b6129186020830184612816565b9392505050565b600060208201905061293460008301846122a9565b92915050565b600060208201905061294f60008301846122b8565b92915050565b6000602082019050818103600083015261296f81846122c7565b905092915050565b6000602082019050818103600083015261299081612331565b9050919050565b600060208201905081810360008301526129b081612371565b9050919050565b600060208201905081810360008301526129d0816123d7565b9050919050565b600060208201905081810360008301526129f08161243d565b9050919050565b60006020820190508181036000830152612a10816124a3565b9050919050565b60006020820190508181036000830152612a30816124e3565b9050919050565b60006020820190508181036000830152612a5081612549565b9050919050565b60006020820190508181036000830152612a7081612589565b9050919050565b60006020820190508181036000830152612a90816125ef565b9050919050565b60006020820190508181036000830152612ab081612655565b9050919050565b60006020820190508181036000830152612ad0816126fb565b9050919050565b60006020820190508181036000830152612af0816127a1565b9050919050565b6000602082019050612b0c6000830184612816565b92915050565b6000604051905081810181811067ffffffffffffffff82111715612b3957612b38612e59565b5b8060405250919050565b600067ffffffffffffffff821115612b5e57612b5d612e59565b5b602082029050602081019050919050565b600067ffffffffffffffff821115612b8a57612b89612e59565b5b602082029050602081019050919050565b6000819050602082019050919050565b6000819050602082019050919050565b600081519050919050565b600081519050919050565b600081519050919050565b6000602082019050919050565b6000602082019050919050565b600082825260208201905092915050565b600082825260208201905092915050565b600082825260208201905092915050565b600081905092915050565b6000612c3f82612d8c565b9150612c4a83612d8c565b9250827fffffffffffffffffffffffffffffffffffffffffffffffffffffffffffffffff03821115612c7f57612c7e612e2a565b5b828201905092915050565b6000612c9582612d8c565b9150612ca083612d8c565b9250817fffffffffffffffffffffffffffffffffffffffffffffffffffffffffffffffff0483118215151615612cd957612cd8612e2a565b5b828202905092915050565b6000612cef82612d8c565b9150612cfa83612d8c565b925082821015612d0d57612d0c612e2a565b5b828203905092915050565b6000612d2382612d6c565b9050919050565b60008115159050919050565b6000819050919050565b60007fffffffff0000000000000000000000000000000000000000000000000000000082169050919050565b600073ffffffffffffffffffffffffffffffffffffffff82169050919050565b6000819050919050565b600060ff82169050919050565b60005b83811015612dc1578082015181840152602081019050612da6565b83811115612dd0576000848401525b50505050565b6000612de182612d8c565b91506000821415612df557612df4612e2a565b5b600182039050919050565b6000612e0b82612d96565b915060ff821415612e1f57612e1e612e2a565b5b600182019050919050565b7f4e487b7100000000000000000000000000000000000000000000000000000000600052601160045260246000fd5b7f4e487b7100000000000000000000000000000000000000000000000000000000600052604160045260246000fd5b6000601f19601f8301169050919050565b612ea281612d18565b8114612ead57600080fd5b50565b612eb981612d2a565b8114612ec457600080fd5b50565b612ed081612d36565b8114612edb57600080fd5b50565b612ee781612d40565b8114612ef257600080fd5b50565b612efe81612d8c565b8114612f0957600080fd5b5056fea264697066735822122073dc2b53ed258985125a3da7ae5de4fa26b5d5aeab6a3666eca61435031eb51c64736f6c63430008000033",
  "linkReferences": {},
  "deployedLinkReferences": {}
}