{
  "_format": "hh-sol-artifact-1",
  "contractName": "JacksPizzaOrg",
  "sourceName": "contracts/JacksPizzaOrg.sol",
  "abi": [
    {
      "inputs": [],
      "stateMutability": "nonpayable",
      "type": "constructor"
    },
    {
      "anonymous": false,
      "inputs": [
        {
          "indexed": true,
          "internalType": "address",
          "name": "previousOwner",
          "type": "address"
        },
        {
          "indexed": true,
          "internalType": "address",
          "name": "newOwner",
          "type": "address"
        }
      ],
      "name": "OwnershipTransferred",
      "type": "event"
    },
    {
      "anonymous": false,
      "inputs": [
        {
          "indexed": true,
          "internalType": "bytes32",
          "name": "role",
          "type": "bytes32"
        },
        {
          "indexed": true,
          "internalType": "bytes32",
          "name": "previousAdminRole",
          "type": "bytes32"
        },
        {
          "indexed": true,
          "internalType": "bytes32",
          "name": "newAdminRole",
          "type": "bytes32"
        }
      ],
      "name": "RoleAdminChanged",
      "type": "event"
    },
    {
      "anonymous": false,
      "inputs": [
        {
          "indexed": true,
          "internalType": "bytes32",
          "name": "role",
          "type": "bytes32"
        },
        {
          "indexed": true,
          "internalType": "address",
          "name": "account",
          "type": "address"
        },
        {
          "indexed": true,
          "internalType": "address",
          "name": "sender",
          "type": "address"
        }
      ],
      "name": "RoleGranted",
      "type": "event"
    },
    {
      "anonymous": false,
      "inputs": [
        {
          "indexed": true,
          "internalType": "bytes32",
          "name": "role",
          "type": "bytes32"
        },
        {
          "indexed": true,
          "internalType": "address",
          "name": "account",
          "type": "address"
        },
        {
          "indexed": true,
          "internalType": "address",
          "name": "sender",
          "type": "address"
        }
      ],
      "name": "RoleRevoked",
      "type": "event"
    },
    {
      "inputs": [],
      "name": "DEFAULT_ADMIN_ROLE",
      "outputs": [
        {
          "internalType": "bytes32",
          "name": "",
          "type": "bytes32"
        }
      ],
      "stateMutability": "view",
      "type": "function"
    },
    {
      "inputs": [],
      "name": "EMPLOYEE_ROLE",
      "outputs": [
        {
          "internalType": "bytes32",
          "name": "",
          "type": "bytes32"
        }
      ],
      "stateMutability": "view",
      "type": "function"
    },
    {
      "inputs": [
        {
          "internalType": "address",
          "name": "employee",
          "type": "address"
        }
      ],
      "name": "addEmployee",
      "outputs": [
        {
          "internalType": "bool",
          "name": "",
          "type": "bool"
        }
      ],
      "stateMutability": "nonpayable",
      "type": "function"
    },
    {
      "inputs": [
        {
          "internalType": "address",
          "name": "from",
          "type": "address"
        },
        {
          "internalType": "uint256",
          "name": "amount",
          "type": "uint256"
        }
      ],
      "name": "burnEmployeeTokens",
      "outputs": [],
      "stateMutability": "nonpayable",
      "type": "function"
    },
    {
      "inputs": [
        {
          "internalType": "uint256",
          "name": "",
          "type": "uint256"
        }
      ],
      "name": "erc20_employee_token_addresses",
      "outputs": [
        {
          "internalType": "address",
          "name": "",
          "type": "address"
        }
      ],
      "stateMutability": "view",
      "type": "function"
    },
    {
      "inputs": [
        {
          "internalType": "address",
          "name": "account",
          "type": "address"
        }
      ],
      "name": "getBalanceOf",
      "outputs": [
        {
          "internalType": "uint256",
          "name": "",
          "type": "uint256"
        }
      ],
      "stateMutability": "view",
      "type": "function"
    },
    {
      "inputs": [],
      "name": "getErc20EmployeeTokenAddress",
      "outputs": [
        {
          "internalType": "address",
          "name": "",
          "type": "address"
        }
      ],
      "stateMutability": "view",
      "type": "function"
    },
    {
      "inputs": [
        {
          "internalType": "bytes32",
          "name": "role",
          "type": "bytes32"
        }
      ],
      "name": "getRoleAdmin",
      "outputs": [
        {
          "internalType": "bytes32",
          "name": "",
          "type": "bytes32"
        }
      ],
      "stateMutability": "view",
      "type": "function"
    },
    {
      "inputs": [
        {
          "internalType": "bytes32",
          "name": "role",
          "type": "bytes32"
        },
        {
          "internalType": "address",
          "name": "account",
          "type": "address"
        }
      ],
      "name": "grantRole",
      "outputs": [],
      "stateMutability": "nonpayable",
      "type": "function"
    },
    {
      "inputs": [
        {
          "internalType": "address",
          "name": "employee",
          "type": "address"
        }
      ],
      "name": "hasEmployee",
      "outputs": [
        {
          "internalType": "bool",
          "name": "",
          "type": "bool"
        }
      ],
      "stateMutability": "view",
      "type": "function"
    },
    {
      "inputs": [
        {
          "internalType": "bytes32",
          "name": "role",
          "type": "bytes32"
        },
        {
          "internalType": "address",
          "name": "account",
          "type": "address"
        }
      ],
      "name": "hasRole",
      "outputs": [
        {
          "internalType": "bool",
          "name": "",
          "type": "bool"
        }
      ],
      "stateMutability": "view",
      "type": "function"
    },
    {
      "inputs": [],
      "name": "owner",
      "outputs": [
        {
          "internalType": "address",
          "name": "",
          "type": "address"
        }
      ],
      "stateMutability": "view",
      "type": "function"
    },
    {
      "inputs": [
        {
          "internalType": "address",
          "name": "employee",
          "type": "address"
        }
      ],
      "name": "removeEmployee",
      "outputs": [
        {
          "internalType": "bool",
          "name": "",
          "type": "bool"
        }
      ],
      "stateMutability": "nonpayable",
      "type": "function"
    },
    {
      "inputs": [],
      "name": "renounceOwnership",
      "outputs": [],
      "stateMutability": "nonpayable",
      "type": "function"
    },
    {
      "inputs": [
        {
          "internalType": "bytes32",
          "name": "role",
          "type": "bytes32"
        },
        {
          "internalType": "address",
          "name": "account",
          "type": "address"
        }
      ],
      "name": "renounceRole",
      "outputs": [],
      "stateMutability": "nonpayable",
      "type": "function"
    },
    {
      "inputs": [
        {
          "internalType": "bytes32",
          "name": "role",
          "type": "bytes32"
        },
        {
          "internalType": "address",
          "name": "account",
          "type": "address"
        }
      ],
      "name": "revokeRole",
      "outputs": [],
      "stateMutability": "nonpayable",
      "type": "function"
    },
    {
      "inputs": [
        {
          "internalType": "address",
          "name": "newTokenAddress",
          "type": "address"
        }
      ],
      "name": "setErc20EmployeeTokenAddress",
      "outputs": [
        {
          "internalType": "address",
          "name": "",
          "type": "address"
        }
      ],
      "stateMutability": "nonpayable",
      "type": "function"
    },
    {
      "inputs": [
        {
          "internalType": "address",
          "name": "newOwner",
          "type": "address"
        }
      ],
      "name": "setOwnershipOfEmployeeTokenContract",
      "outputs": [
        {
          "internalType": "address",
          "name": "",
          "type": "address"
        }
      ],
      "stateMutability": "nonpayable",
      "type": "function"
    },
    {
      "inputs": [
        {
          "internalType": "bytes4",
          "name": "interfaceId",
          "type": "bytes4"
        }
      ],
      "name": "supportsInterface",
      "outputs": [
        {
          "internalType": "bool",
          "name": "",
          "type": "bool"
        }
      ],
      "stateMutability": "view",
      "type": "function"
    },
    {
      "inputs": [
        {
          "internalType": "address",
          "name": "from",
          "type": "address"
        },
        {
          "internalType": "address",
          "name": "to",
          "type": "address"
        },
        {
          "internalType": "uint256",
          "name": "amount",
          "type": "uint256"
        }
      ],
      "name": "transferEmployeeTokens",
      "outputs": [],
      "stateMutability": "nonpayable",
      "type": "function"
    },
    {
      "inputs": [
        {
          "internalType": "address",
          "name": "newOwner",
          "type": "address"
        }
      ],
      "name": "transferOwnership",
      "outputs": [],
      "stateMutability": "nonpayable",
      "type": "function"
    }
  ],
  "bytecode": "0x60806040523480156200001157600080fd5b5062000032620000266200004d60201b60201c565b6200005560201b60201c565b620000476000801b336200011960201b60201c565b6200028b565b600033905090565b60008060009054906101000a900473ffffffffffffffffffffffffffffffffffffffff169050816000806101000a81548173ffffffffffffffffffffffffffffffffffffffff021916908373ffffffffffffffffffffffffffffffffffffffff1602179055508173ffffffffffffffffffffffffffffffffffffffff168173ffffffffffffffffffffffffffffffffffffffff167f8be0079c531659141344cd1fd0a4f28419497f9722a3daafe3b4186f6b6457e060405160405180910390a35050565b6200012b82826200012f60201b60201c565b5050565b6200014182826200022060201b60201c565b6200021c57600180600084815260200190815260200160002060000160008373ffffffffffffffffffffffffffffffffffffffff1673ffffffffffffffffffffffffffffffffffffffff16815260200190815260200160002060006101000a81548160ff021916908315150217905550620001c16200004d60201b60201c565b73ffffffffffffffffffffffffffffffffffffffff168173ffffffffffffffffffffffffffffffffffffffff16837f2f8788117e7eff1d82e926ec794901d17c78024a50270940304540a733656f0d60405160405180910390a45b5050565b60006001600084815260200190815260200160002060000160008373ffffffffffffffffffffffffffffffffffffffff1673ffffffffffffffffffffffffffffffffffffffff16815260200190815260200160002060009054906101000a900460ff16905092915050565b612402806200029b6000396000f3fe608060405234801561001057600080fd5b50600436106101375760003560e01c80638da5cb5b116100b8578063a8867cc91161007c578063a8867cc91461034e578063d108177a1461037e578063d547741f146103ae578063f2fde38b146103ca578063f3cb8c31146103e6578063f85eace91461041657610137565b80638da5cb5b1461029657806391d14854146102b45780639b96eece146102e4578063a217fddf14610314578063a6e3f6331461033257610137565b806336568abe116100ff57806336568abe1461020657806363f2125014610222578063671ef6bd14610240578063715018a61461025c5780637ded84581461026657610137565b806301ffc9a71461013c57806307716dd21461016c578063248a9ca31461019c5780632a4cab90146101cc5780632f2ff15d146101ea575b600080fd5b61015660048036038101906101519190611a3d565b610446565b6040516101639190611fb7565b60405180910390f35b61018660048036038101906101819190611924565b6104c0565b6040516101939190611fb7565b60405180910390f35b6101b660048036038101906101b191906119d8565b6104f3565b6040516101c39190611fd2565b60405180910390f35b6101d4610513565b6040516101e19190611fd2565b60405180910390f35b61020460048036038101906101ff9190611a01565b610537565b005b610220600480360381019061021b9190611a01565b610560565b005b61022a6105e3565b6040516102379190611f3c565b60405180910390f35b61025a6004803603810190610255919061199c565b610660565b005b6102646108db565b005b610280600480360381019061027b9190611a66565b610963565b60405161028d9190611f3c565b60405180910390f35b61029e6109a2565b6040516102ab9190611f3c565b60405180910390f35b6102ce60048036038101906102c99190611a01565b6109cb565b6040516102db9190611fb7565b60405180910390f35b6102fe60048036038101906102f99190611924565b610a36565b60405161030b919061212f565b60405180910390f35b61031c610ad4565b6040516103299190611fd2565b60405180910390f35b61034c6004803603810190610347919061194d565b610adb565b005b61036860048036038101906103639190611924565b610dc2565b6040516103759190611f3c565b60405180910390f35b61039860048036038101906103939190611924565b610ec0565b6040516103a59190611fb7565b60405180910390f35b6103c860048036038101906103c39190611a01565b610f71565b005b6103e460048036038101906103df9190611924565b610f9a565b005b61040060048036038101906103fb9190611924565b611092565b60405161040d9190611fb7565b60405180910390f35b610430600480360381019061042b9190611924565b611143565b60405161043d9190611f3c565b60405180910390f35b60007f7965db0b000000000000000000000000000000000000000000000000000000007bffffffffffffffffffffffffffffffffffffffffffffffffffffffff1916827bffffffffffffffffffffffffffffffffffffffffffffffffffffffff191614806104b957506104b88261122c565b5b9050919050565b60006104ec7f5a3425ea67e73c95853ecfc0c443062de292a303c186bc2aac1178ae1b86c62a836109cb565b9050919050565b600060016000838152602001908152602001600020600101549050919050565b7f5a3425ea67e73c95853ecfc0c443062de292a303c186bc2aac1178ae1b86c62a81565b610540826104f3565b6105518161054c611296565b61129e565b61055b838361133b565b505050565b610568611296565b73ffffffffffffffffffffffffffffffffffffffff168173ffffffffffffffffffffffffffffffffffffffff16146105d5576040517f08c379a00000000000000000000000000000000000000000000000000000000081526004016105cc9061210f565b60405180910390fd5b6105df828261141b565b5050565b6000600260016002805490506105f99190612221565b81548110610630577f4e487b7100000000000000000000000000000000000000000000000000000000600052603260045260246000fd5b9060005260206000200160009054906101000a900473ffffffffffffffffffffffffffffffffffffffff16905090565b3373ffffffffffffffffffffffffffffffffffffffff168273ffffffffffffffffffffffffffffffffffffffff1614806106cc575061069d6109a2565b73ffffffffffffffffffffffffffffffffffffffff163373ffffffffffffffffffffffffffffffffffffffff16145b61070b576040517f08c379a0000000000000000000000000000000000000000000000000000000008152600401610702906120ef565b60405180910390fd5b6107357f5a3425ea67e73c95853ecfc0c443062de292a303c186bc2aac1178ae1b86c62a336109cb565b8061077257506107436109a2565b73ffffffffffffffffffffffffffffffffffffffff163373ffffffffffffffffffffffffffffffffffffffff16145b6107b1576040517f08c379a00000000000000000000000000000000000000000000000000000000081526004016107a89061208f565b60405180910390fd5b6107db7f5a3425ea67e73c95853ecfc0c443062de292a303c186bc2aac1178ae1b86c62a836109cb565b61081a576040517f08c379a0000000000000000000000000000000000000000000000000000000008152600401610811906120cf565b60405180910390fd5b6000811161085d576040517f08c379a00000000000000000000000000000000000000000000000000000000081526004016108549061206f565b60405180910390fd5b60006108676105e3565b90508073ffffffffffffffffffffffffffffffffffffffff16639dc29fac84846040518363ffffffff1660e01b81526004016108a4929190611f8e565b600060405180830381600087803b1580156108be57600080fd5b505af11580156108d2573d6000803e3d6000fd5b50505050505050565b6108e3611296565b73ffffffffffffffffffffffffffffffffffffffff166109016109a2565b73ffffffffffffffffffffffffffffffffffffffff1614610957576040517f08c379a000000000000000000000000000000000000000000000000000000000815260040161094e906120af565b60405180910390fd5b61096160006114fd565b565b6002818154811061097357600080fd5b906000526020600020016000915054906101000a900473ffffffffffffffffffffffffffffffffffffffff1681565b60008060009054906101000a900473ffffffffffffffffffffffffffffffffffffffff16905090565b60006001600084815260200190815260200160002060000160008373ffffffffffffffffffffffffffffffffffffffff1673ffffffffffffffffffffffffffffffffffffffff16815260200190815260200160002060009054906101000a900460ff16905092915050565b600080610a416105e3565b90508073ffffffffffffffffffffffffffffffffffffffff166370a08231846040518263ffffffff1660e01b8152600401610a7c9190611f3c565b60206040518083038186803b158015610a9457600080fd5b505afa158015610aa8573d6000803e3d6000fd5b505050506040513d601f19601f82011682018060405250810190610acc9190611a8f565b915050919050565b6000801b81565b3373ffffffffffffffffffffffffffffffffffffffff168373ffffffffffffffffffffffffffffffffffffffff161480610b475750610b186109a2565b73ffffffffffffffffffffffffffffffffffffffff163373ffffffffffffffffffffffffffffffffffffffff16145b610b86576040517f08c379a0000000000000000000000000000000000000000000000000000000008152600401610b7d906120ef565b60405180910390fd5b610bb07f5a3425ea67e73c95853ecfc0c443062de292a303c186bc2aac1178ae1b86c62a336109cb565b80610bed5750610bbe6109a2565b73ffffffffffffffffffffffffffffffffffffffff163373ffffffffffffffffffffffffffffffffffffffff16145b610c2c576040517f08c379a0000000000000000000000000000000000000000000000000000000008152600401610c239061208f565b60405180910390fd5b610c567f5a3425ea67e73c95853ecfc0c443062de292a303c186bc2aac1178ae1b86c62a846109cb565b610c95576040517f08c379a0000000000000000000000000000000000000000000000000000000008152600401610c8c906120cf565b60405180910390fd5b610cbf7f5a3425ea67e73c95853ecfc0c443062de292a303c186bc2aac1178ae1b86c62a836109cb565b610cfe576040517f08c379a0000000000000000000000000000000000000000000000000000000008152600401610cf59061202f565b60405180910390fd5b60008111610d41576040517f08c379a0000000000000000000000000000000000000000000000000000000008152600401610d389061206f565b60405180910390fd5b6000610d4b6105e3565b90508073ffffffffffffffffffffffffffffffffffffffff1663beabacc88585856040518463ffffffff1660e01b8152600401610d8a93929190611f57565b600060405180830381600087803b158015610da457600080fd5b505af1158015610db8573d6000803e3d6000fd5b5050505050505050565b6000610dcc611296565b73ffffffffffffffffffffffffffffffffffffffff16610dea6109a2565b73ffffffffffffffffffffffffffffffffffffffff1614610e40576040517f08c379a0000000000000000000000000000000000000000000000000000000008152600401610e37906120af565b60405180910390fd5b6000610e4a6105e3565b90508073ffffffffffffffffffffffffffffffffffffffff1663f2fde38b846040518263ffffffff1660e01b8152600401610e859190611f3c565b600060405180830381600087803b158015610e9f57600080fd5b505af1158015610eb3573d6000803e3d6000fd5b5050505082915050919050565b6000610eca611296565b73ffffffffffffffffffffffffffffffffffffffff16610ee86109a2565b73ffffffffffffffffffffffffffffffffffffffff1614610f3e576040517f08c379a0000000000000000000000000000000000000000000000000000000008152600401610f35906120af565b60405180910390fd5b610f687f5a3425ea67e73c95853ecfc0c443062de292a303c186bc2aac1178ae1b86c62a83610f71565b60019050919050565b610f7a826104f3565b610f8b81610f86611296565b61129e565b610f95838361141b565b505050565b610fa2611296565b73ffffffffffffffffffffffffffffffffffffffff16610fc06109a2565b73ffffffffffffffffffffffffffffffffffffffff1614611016576040517f08c379a000000000000000000000000000000000000000000000000000000000815260040161100d906120af565b60405180910390fd5b600073ffffffffffffffffffffffffffffffffffffffff168173ffffffffffffffffffffffffffffffffffffffff161415611086576040517f08c379a000000000000000000000000000000000000000000000000000000000815260040161107d9061204f565b60405180910390fd5b61108f816114fd565b50565b600061109c611296565b73ffffffffffffffffffffffffffffffffffffffff166110ba6109a2565b73ffffffffffffffffffffffffffffffffffffffff1614611110576040517f08c379a0000000000000000000000000000000000000000000000000000000008152600401611107906120af565b60405180910390fd5b61113a7f5a3425ea67e73c95853ecfc0c443062de292a303c186bc2aac1178ae1b86c62a83610537565b60019050919050565b600061114d611296565b73ffffffffffffffffffffffffffffffffffffffff1661116b6109a2565b73ffffffffffffffffffffffffffffffffffffffff16146111c1576040517f08c379a00000000000000000000000000000000000000000000000000000000081526004016111b8906120af565b60405180910390fd5b6002829080600181540180825580915050600190039060005260206000200160009091909190916101000a81548173ffffffffffffffffffffffffffffffffffffffff021916908373ffffffffffffffffffffffffffffffffffffffff160217905550819050919050565b60007f01ffc9a7000000000000000000000000000000000000000000000000000000007bffffffffffffffffffffffffffffffffffffffffffffffffffffffff1916827bffffffffffffffffffffffffffffffffffffffffffffffffffffffff1916149050919050565b600033905090565b6112a882826109cb565b611337576112cd8173ffffffffffffffffffffffffffffffffffffffff1660146115c1565b6112db8360001c60206115c1565b6040516020016112ec929190611f02565b6040516020818303038152906040526040517f08c379a000000000000000000000000000000000000000000000000000000000815260040161132e9190611fed565b60405180910390fd5b5050565b61134582826109cb565b61141757600180600084815260200190815260200160002060000160008373ffffffffffffffffffffffffffffffffffffffff1673ffffffffffffffffffffffffffffffffffffffff16815260200190815260200160002060006101000a81548160ff0219169083151502179055506113bc611296565b73ffffffffffffffffffffffffffffffffffffffff168173ffffffffffffffffffffffffffffffffffffffff16837f2f8788117e7eff1d82e926ec794901d17c78024a50270940304540a733656f0d60405160405180910390a45b5050565b61142582826109cb565b156114f95760006001600084815260200190815260200160002060000160008373ffffffffffffffffffffffffffffffffffffffff1673ffffffffffffffffffffffffffffffffffffffff16815260200190815260200160002060006101000a81548160ff02191690831515021790555061149e611296565b73ffffffffffffffffffffffffffffffffffffffff168173ffffffffffffffffffffffffffffffffffffffff16837ff6391f5c32d9c69d2a47ea670b442974b53935d1edc7fd64eb21e047a839171b60405160405180910390a45b5050565b60008060009054906101000a900473ffffffffffffffffffffffffffffffffffffffff169050816000806101000a81548173ffffffffffffffffffffffffffffffffffffffff021916908373ffffffffffffffffffffffffffffffffffffffff1602179055508173ffffffffffffffffffffffffffffffffffffffff168173ffffffffffffffffffffffffffffffffffffffff167f8be0079c531659141344cd1fd0a4f28419497f9722a3daafe3b4186f6b6457e060405160405180910390a35050565b6060600060028360026115d491906121c7565b6115de9190612171565b67ffffffffffffffff81111561161d577f4e487b7100000000000000000000000000000000000000000000000000000000600052604160045260246000fd5b6040519080825280601f01601f19166020018201604052801561164f5781602001600182028036833780820191505090505b5090507f3000000000000000000000000000000000000000000000000000000000000000816000815181106116ad577f4e487b7100000000000000000000000000000000000000000000000000000000600052603260045260246000fd5b60200101907effffffffffffffffffffffffffffffffffffffffffffffffffffffffffffff1916908160001a9053507f780000000000000000000000000000000000000000000000000000000000000081600181518110611737577f4e487b7100000000000000000000000000000000000000000000000000000000600052603260045260246000fd5b60200101907effffffffffffffffffffffffffffffffffffffffffffffffffffffffffffff1916908160001a9053506000600184600261177791906121c7565b6117819190612171565b90505b600181111561186d577f3031323334353637383961626364656600000000000000000000000000000000600f8616601081106117e9577f4e487b7100000000000000000000000000000000000000000000000000000000600052603260045260246000fd5b1a60f81b828281518110611826577f4e487b7100000000000000000000000000000000000000000000000000000000600052603260045260246000fd5b60200101907effffffffffffffffffffffffffffffffffffffffffffffffffffffffffffff1916908160001a905350600485901c94508061186690612306565b9050611784565b50600084146118b1576040517f08c379a00000000000000000000000000000000000000000000000000000000081526004016118a89061200f565b60405180910390fd5b8091505092915050565b6000813590506118ca81612370565b92915050565b6000813590506118df81612387565b92915050565b6000813590506118f48161239e565b92915050565b600081359050611909816123b5565b92915050565b60008151905061191e816123b5565b92915050565b60006020828403121561193657600080fd5b6000611944848285016118bb565b91505092915050565b60008060006060848603121561196257600080fd5b6000611970868287016118bb565b9350506020611981868287016118bb565b9250506040611992868287016118fa565b9150509250925092565b600080604083850312156119af57600080fd5b60006119bd858286016118bb565b92505060206119ce858286016118fa565b9150509250929050565b6000602082840312156119ea57600080fd5b60006119f8848285016118d0565b91505092915050565b60008060408385031215611a1457600080fd5b6000611a22858286016118d0565b9250506020611a33858286016118bb565b9150509250929050565b600060208284031215611a4f57600080fd5b6000611a5d848285016118e5565b91505092915050565b600060208284031215611a7857600080fd5b6000611a86848285016118fa565b91505092915050565b600060208284031215611aa157600080fd5b6000611aaf8482850161190f565b91505092915050565b611ac181612255565b82525050565b611ad081612267565b82525050565b611adf81612273565b82525050565b6000611af08261214a565b611afa8185612155565b9350611b0a8185602086016122d3565b611b138161235f565b840191505092915050565b6000611b298261214a565b611b338185612166565b9350611b438185602086016122d3565b80840191505092915050565b6000611b5c602083612155565b91507f537472696e67733a20686578206c656e67746820696e73756666696369656e746000830152602082019050919050565b6000611b9c602a83612155565b91507f746f206973206e6f7420616e20656d706c6f796565206f662074686973206f7260008301527f67616e697a6174696f6e000000000000000000000000000000000000000000006020830152604082019050919050565b6000611c02602683612155565b91507f4f776e61626c653a206e6577206f776e657220697320746865207a65726f206160008301527f64647265737300000000000000000000000000000000000000000000000000006020830152604082019050919050565b6000611c68601d83612155565b91507f416d6f756e74206d7573742062652067726561746572207468616e20300000006000830152602082019050919050565b6000611ca8602683612155565b91507f43616c6c6572206973206e6f7420616e20656d706c6f796565206f722074686560008301527f206f776e657200000000000000000000000000000000000000000000000000006020830152604082019050919050565b6000611d0e602083612155565b91507f4f776e61626c653a2063616c6c6572206973206e6f7420746865206f776e65726000830152602082019050919050565b6000611d4e602c83612155565b91507f66726f6d206973206e6f7420616e20656d706c6f796565206f6620746869732060008301527f6f7267616e697a6174696f6e00000000000000000000000000000000000000006020830152604082019050919050565b6000611db4602183612155565b91507f596f752063616e206f6e6c792073656e6420796f7572206f776e20746f6b656e60008301527f73000000000000000000000000000000000000000000000000000000000000006020830152604082019050919050565b6000611e1a601783612166565b91507f416363657373436f6e74726f6c3a206163636f756e74200000000000000000006000830152601782019050919050565b6000611e5a601183612166565b91507f206973206d697373696e6720726f6c65200000000000000000000000000000006000830152601182019050919050565b6000611e9a602f83612155565b91507f416363657373436f6e74726f6c3a2063616e206f6e6c792072656e6f756e636560008301527f20726f6c657320666f722073656c6600000000000000000000000000000000006020830152604082019050919050565b611efc816122c9565b82525050565b6000611f0d82611e0d565b9150611f198285611b1e565b9150611f2482611e4d565b9150611f308284611b1e565b91508190509392505050565b6000602082019050611f516000830184611ab8565b92915050565b6000606082019050611f6c6000830186611ab8565b611f796020830185611ab8565b611f866040830184611ef3565b949350505050565b6000604082019050611fa36000830185611ab8565b611fb06020830184611ef3565b9392505050565b6000602082019050611fcc6000830184611ac7565b92915050565b6000602082019050611fe76000830184611ad6565b92915050565b600060208201905081810360008301526120078184611ae5565b905092915050565b6000602082019050818103600083015261202881611b4f565b9050919050565b6000602082019050818103600083015261204881611b8f565b9050919050565b6000602082019050818103600083015261206881611bf5565b9050919050565b6000602082019050818103600083015261208881611c5b565b9050919050565b600060208201905081810360008301526120a881611c9b565b9050919050565b600060208201905081810360008301526120c881611d01565b9050919050565b600060208201905081810360008301526120e881611d41565b9050919050565b6000602082019050818103600083015261210881611da7565b9050919050565b6000602082019050818103600083015261212881611e8d565b9050919050565b60006020820190506121446000830184611ef3565b92915050565b600081519050919050565b600082825260208201905092915050565b600081905092915050565b600061217c826122c9565b9150612187836122c9565b9250827fffffffffffffffffffffffffffffffffffffffffffffffffffffffffffffffff038211156121bc576121bb612330565b5b828201905092915050565b60006121d2826122c9565b91506121dd836122c9565b9250817fffffffffffffffffffffffffffffffffffffffffffffffffffffffffffffffff048311821515161561221657612215612330565b5b828202905092915050565b600061222c826122c9565b9150612237836122c9565b92508282101561224a57612249612330565b5b828203905092915050565b6000612260826122a9565b9050919050565b60008115159050919050565b6000819050919050565b60007fffffffff0000000000000000000000000000000000000000000000000000000082169050919050565b600073ffffffffffffffffffffffffffffffffffffffff82169050919050565b6000819050919050565b60005b838110156122f15780820151818401526020810190506122d6565b83811115612300576000848401525b50505050565b6000612311826122c9565b9150600082141561232557612324612330565b5b600182039050919050565b7f4e487b7100000000000000000000000000000000000000000000000000000000600052601160045260246000fd5b6000601f19601f8301169050919050565b61237981612255565b811461238457600080fd5b50565b61239081612273565b811461239b57600080fd5b50565b6123a78161227d565b81146123b257600080fd5b50565b6123be816122c9565b81146123c957600080fd5b5056fea26469706673582212200a7535ea3c040e306440db62a09e05bbdc63402e7e0f1bb5ed8217b43b65d8a964736f6c63430008000033",
  "linkReferences": {},
  "deployedLinkReferences": {}
}