{
  "_format": "hh-sol-artifact-1",
  "contractName": "JacksPizzaOrg",
  "sourceName": "contracts/JacksPizzaOrg.sol",
  "abi": [
    {
      "inputs": [],
      "stateMutability": "nonpayable",
      "type": "constructor"
    },
    {
      "anonymous": false,
      "inputs": [
        {
          "indexed": true,
          "internalType": "address",
          "name": "previousOwner",
          "type": "address"
        },
        {
          "indexed": true,
          "internalType": "address",
          "name": "newOwner",
          "type": "address"
        }
      ],
      "name": "OwnershipTransferred",
      "type": "event"
    },
    {
      "anonymous": false,
      "inputs": [
        {
          "indexed": true,
          "internalType": "bytes32",
          "name": "role",
          "type": "bytes32"
        },
        {
          "indexed": true,
          "internalType": "bytes32",
          "name": "previousAdminRole",
          "type": "bytes32"
        },
        {
          "indexed": true,
          "internalType": "bytes32",
          "name": "newAdminRole",
          "type": "bytes32"
        }
      ],
      "name": "RoleAdminChanged",
      "type": "event"
    },
    {
      "anonymous": false,
      "inputs": [
        {
          "indexed": true,
          "internalType": "bytes32",
          "name": "role",
          "type": "bytes32"
        },
        {
          "indexed": true,
          "internalType": "address",
          "name": "account",
          "type": "address"
        },
        {
          "indexed": true,
          "internalType": "address",
          "name": "sender",
          "type": "address"
        }
      ],
      "name": "RoleGranted",
      "type": "event"
    },
    {
      "anonymous": false,
      "inputs": [
        {
          "indexed": true,
          "internalType": "bytes32",
          "name": "role",
          "type": "bytes32"
        },
        {
          "indexed": true,
          "internalType": "address",
          "name": "account",
          "type": "address"
        },
        {
          "indexed": true,
          "internalType": "address",
          "name": "sender",
          "type": "address"
        }
      ],
      "name": "RoleRevoked",
      "type": "event"
    },
    {
      "inputs": [],
      "name": "DEFAULT_ADMIN_ROLE",
      "outputs": [
        {
          "internalType": "bytes32",
          "name": "",
          "type": "bytes32"
        }
      ],
      "stateMutability": "view",
      "type": "function"
    },
    {
      "inputs": [],
      "name": "EMPLOYEE_ROLE",
      "outputs": [
        {
          "internalType": "bytes32",
          "name": "",
          "type": "bytes32"
        }
      ],
      "stateMutability": "view",
      "type": "function"
    },
    {
      "inputs": [
        {
          "internalType": "address",
          "name": "employee",
          "type": "address"
        }
      ],
      "name": "addEmployee",
      "outputs": [
        {
          "internalType": "bool",
          "name": "",
          "type": "bool"
        }
      ],
      "stateMutability": "nonpayable",
      "type": "function"
    },
    {
      "inputs": [
        {
          "internalType": "uint256",
          "name": "",
          "type": "uint256"
        }
      ],
      "name": "erc20_employee_token_addresses",
      "outputs": [
        {
          "internalType": "address",
          "name": "",
          "type": "address"
        }
      ],
      "stateMutability": "view",
      "type": "function"
    },
    {
      "inputs": [
        {
          "internalType": "address",
          "name": "account",
          "type": "address"
        }
      ],
      "name": "getBalanceOf",
      "outputs": [
        {
          "internalType": "uint256",
          "name": "",
          "type": "uint256"
        }
      ],
      "stateMutability": "view",
      "type": "function"
    },
    {
      "inputs": [],
      "name": "getErc20EmployeeTokenAddress",
      "outputs": [
        {
          "internalType": "address",
          "name": "",
          "type": "address"
        }
      ],
      "stateMutability": "view",
      "type": "function"
    },
    {
      "inputs": [
        {
          "internalType": "bytes32",
          "name": "role",
          "type": "bytes32"
        }
      ],
      "name": "getRoleAdmin",
      "outputs": [
        {
          "internalType": "bytes32",
          "name": "",
          "type": "bytes32"
        }
      ],
      "stateMutability": "view",
      "type": "function"
    },
    {
      "inputs": [
        {
          "internalType": "bytes32",
          "name": "role",
          "type": "bytes32"
        },
        {
          "internalType": "address",
          "name": "account",
          "type": "address"
        }
      ],
      "name": "grantRole",
      "outputs": [],
      "stateMutability": "nonpayable",
      "type": "function"
    },
    {
      "inputs": [
        {
          "internalType": "address",
          "name": "employee",
          "type": "address"
        }
      ],
      "name": "hasEmployee",
      "outputs": [
        {
          "internalType": "bool",
          "name": "",
          "type": "bool"
        }
      ],
      "stateMutability": "view",
      "type": "function"
    },
    {
      "inputs": [
        {
          "internalType": "bytes32",
          "name": "role",
          "type": "bytes32"
        },
        {
          "internalType": "address",
          "name": "account",
          "type": "address"
        }
      ],
      "name": "hasRole",
      "outputs": [
        {
          "internalType": "bool",
          "name": "",
          "type": "bool"
        }
      ],
      "stateMutability": "view",
      "type": "function"
    },
    {
      "inputs": [],
      "name": "owner",
      "outputs": [
        {
          "internalType": "address",
          "name": "",
          "type": "address"
        }
      ],
      "stateMutability": "view",
      "type": "function"
    },
    {
      "inputs": [
        {
          "internalType": "address",
          "name": "employee",
          "type": "address"
        }
      ],
      "name": "removeEmployee",
      "outputs": [
        {
          "internalType": "bool",
          "name": "",
          "type": "bool"
        }
      ],
      "stateMutability": "nonpayable",
      "type": "function"
    },
    {
      "inputs": [],
      "name": "renounceOwnership",
      "outputs": [],
      "stateMutability": "nonpayable",
      "type": "function"
    },
    {
      "inputs": [
        {
          "internalType": "bytes32",
          "name": "role",
          "type": "bytes32"
        },
        {
          "internalType": "address",
          "name": "account",
          "type": "address"
        }
      ],
      "name": "renounceRole",
      "outputs": [],
      "stateMutability": "nonpayable",
      "type": "function"
    },
    {
      "inputs": [
        {
          "internalType": "bytes32",
          "name": "role",
          "type": "bytes32"
        },
        {
          "internalType": "address",
          "name": "account",
          "type": "address"
        }
      ],
      "name": "revokeRole",
      "outputs": [],
      "stateMutability": "nonpayable",
      "type": "function"
    },
    {
      "inputs": [
        {
          "internalType": "address",
          "name": "newTokenAddress",
          "type": "address"
        }
      ],
      "name": "setErc20EmployeeTokenAddress",
      "outputs": [
        {
          "internalType": "address",
          "name": "",
          "type": "address"
        }
      ],
      "stateMutability": "nonpayable",
      "type": "function"
    },
    {
      "inputs": [
        {
          "internalType": "address",
          "name": "newOwner",
          "type": "address"
        }
      ],
      "name": "setOwnershipOfEmployeeTokenContract",
      "outputs": [
        {
          "internalType": "address",
          "name": "",
          "type": "address"
        }
      ],
      "stateMutability": "nonpayable",
      "type": "function"
    },
    {
      "inputs": [
        {
          "internalType": "bytes4",
          "name": "interfaceId",
          "type": "bytes4"
        }
      ],
      "name": "supportsInterface",
      "outputs": [
        {
          "internalType": "bool",
          "name": "",
          "type": "bool"
        }
      ],
      "stateMutability": "view",
      "type": "function"
    },
    {
      "inputs": [
        {
          "internalType": "address",
          "name": "from",
          "type": "address"
        },
        {
          "internalType": "address",
          "name": "to",
          "type": "address"
        },
        {
          "internalType": "uint256",
          "name": "amount",
          "type": "uint256"
        }
      ],
      "name": "transferEmployeeTokens",
      "outputs": [],
      "stateMutability": "nonpayable",
      "type": "function"
    },
    {
      "inputs": [
        {
          "internalType": "address",
          "name": "newOwner",
          "type": "address"
        }
      ],
      "name": "transferOwnership",
      "outputs": [],
      "stateMutability": "nonpayable",
      "type": "function"
    }
  ],
  "bytecode": "0x60806040523480156200001157600080fd5b5062000032620000266200004d60201b60201c565b6200005560201b60201c565b620000476000801b336200011960201b60201c565b6200028b565b600033905090565b60008060009054906101000a900473ffffffffffffffffffffffffffffffffffffffff169050816000806101000a81548173ffffffffffffffffffffffffffffffffffffffff021916908373ffffffffffffffffffffffffffffffffffffffff1602179055508173ffffffffffffffffffffffffffffffffffffffff168173ffffffffffffffffffffffffffffffffffffffff167f8be0079c531659141344cd1fd0a4f28419497f9722a3daafe3b4186f6b6457e060405160405180910390a35050565b6200012b82826200012f60201b60201c565b5050565b6200014182826200022060201b60201c565b6200021c57600180600084815260200190815260200160002060000160008373ffffffffffffffffffffffffffffffffffffffff1673ffffffffffffffffffffffffffffffffffffffff16815260200190815260200160002060006101000a81548160ff021916908315150217905550620001c16200004d60201b60201c565b73ffffffffffffffffffffffffffffffffffffffff168173ffffffffffffffffffffffffffffffffffffffff16837f2f8788117e7eff1d82e926ec794901d17c78024a50270940304540a733656f0d60405160405180910390a45b5050565b60006001600084815260200190815260200160002060000160008373ffffffffffffffffffffffffffffffffffffffff1673ffffffffffffffffffffffffffffffffffffffff16815260200190815260200160002060009054906101000a900460ff16905092915050565b6120fb806200029b6000396000f3fe608060405234801561001057600080fd5b506004361061012c5760003560e01c806391d14854116100ad578063d108177a11610071578063d108177a14610357578063d547741f14610387578063f2fde38b146103a3578063f3cb8c31146103bf578063f85eace9146103ef5761012c565b806391d148541461028d5780639b96eece146102bd578063a217fddf146102ed578063a6e3f6331461030b578063a8867cc9146103275761012c565b806336568abe116100f457806336568abe146101fb57806363f2125014610217578063715018a6146102355780637ded84581461023f5780638da5cb5b1461026f5761012c565b806301ffc9a71461013157806307716dd214610161578063248a9ca3146101915780632a4cab90146101c15780632f2ff15d146101df575b600080fd5b61014b6004803603810190610146919061175f565b61041f565b6040516101589190611cb0565b60405180910390f35b61017b60048036038101906101769190611682565b610499565b6040516101889190611cb0565b60405180910390f35b6101ab60048036038101906101a691906116fa565b6104cc565b6040516101b89190611ccb565b60405180910390f35b6101c96104ec565b6040516101d69190611ccb565b60405180910390f35b6101f960048036038101906101f49190611723565b610510565b005b61021560048036038101906102109190611723565b610539565b005b61021f6105bc565b60405161022c9190611c5e565b60405180910390f35b61023d610639565b005b61025960048036038101906102549190611788565b6106c1565b6040516102669190611c5e565b60405180910390f35b610277610700565b6040516102849190611c5e565b60405180910390f35b6102a760048036038101906102a29190611723565b610729565b6040516102b49190611cb0565b60405180910390f35b6102d760048036038101906102d29190611682565b610794565b6040516102e49190611e28565b60405180910390f35b6102f5610832565b6040516103029190611ccb565b60405180910390f35b610325600480360381019061032091906116ab565b610839565b005b610341600480360381019061033c9190611682565b610b20565b60405161034e9190611c5e565b60405180910390f35b610371600480360381019061036c9190611682565b610c1e565b60405161037e9190611cb0565b60405180910390f35b6103a1600480360381019061039c9190611723565b610ccf565b005b6103bd60048036038101906103b89190611682565b610cf8565b005b6103d960048036038101906103d49190611682565b610df0565b6040516103e69190611cb0565b60405180910390f35b61040960048036038101906104049190611682565b610ea1565b6040516104169190611c5e565b60405180910390f35b60007f7965db0b000000000000000000000000000000000000000000000000000000007bffffffffffffffffffffffffffffffffffffffffffffffffffffffff1916827bffffffffffffffffffffffffffffffffffffffffffffffffffffffff19161480610492575061049182610f8a565b5b9050919050565b60006104c57f5a3425ea67e73c95853ecfc0c443062de292a303c186bc2aac1178ae1b86c62a83610729565b9050919050565b600060016000838152602001908152602001600020600101549050919050565b7f5a3425ea67e73c95853ecfc0c443062de292a303c186bc2aac1178ae1b86c62a81565b610519826104cc565b61052a81610525610ff4565b610ffc565b6105348383611099565b505050565b610541610ff4565b73ffffffffffffffffffffffffffffffffffffffff168173ffffffffffffffffffffffffffffffffffffffff16146105ae576040517f08c379a00000000000000000000000000000000000000000000000000000000081526004016105a590611e08565b60405180910390fd5b6105b88282611179565b5050565b6000600260016002805490506105d29190611f1a565b81548110610609577f4e487b7100000000000000000000000000000000000000000000000000000000600052603260045260246000fd5b9060005260206000200160009054906101000a900473ffffffffffffffffffffffffffffffffffffffff16905090565b610641610ff4565b73ffffffffffffffffffffffffffffffffffffffff1661065f610700565b73ffffffffffffffffffffffffffffffffffffffff16146106b5576040517f08c379a00000000000000000000000000000000000000000000000000000000081526004016106ac90611da8565b60405180910390fd5b6106bf600061125b565b565b600281815481106106d157600080fd5b906000526020600020016000915054906101000a900473ffffffffffffffffffffffffffffffffffffffff1681565b60008060009054906101000a900473ffffffffffffffffffffffffffffffffffffffff16905090565b60006001600084815260200190815260200160002060000160008373ffffffffffffffffffffffffffffffffffffffff1673ffffffffffffffffffffffffffffffffffffffff16815260200190815260200160002060009054906101000a900460ff16905092915050565b60008061079f6105bc565b90508073ffffffffffffffffffffffffffffffffffffffff166370a08231846040518263ffffffff1660e01b81526004016107da9190611c5e565b60206040518083038186803b1580156107f257600080fd5b505afa158015610806573d6000803e3d6000fd5b505050506040513d601f19601f8201168201806040525081019061082a91906117b1565b915050919050565b6000801b81565b3373ffffffffffffffffffffffffffffffffffffffff168373ffffffffffffffffffffffffffffffffffffffff1614806108a55750610876610700565b73ffffffffffffffffffffffffffffffffffffffff163373ffffffffffffffffffffffffffffffffffffffff16145b6108e4576040517f08c379a00000000000000000000000000000000000000000000000000000000081526004016108db90611de8565b60405180910390fd5b61090e7f5a3425ea67e73c95853ecfc0c443062de292a303c186bc2aac1178ae1b86c62a33610729565b8061094b575061091c610700565b73ffffffffffffffffffffffffffffffffffffffff163373ffffffffffffffffffffffffffffffffffffffff16145b61098a576040517f08c379a000000000000000000000000000000000000000000000000000000000815260040161098190611d88565b60405180910390fd5b6109b47f5a3425ea67e73c95853ecfc0c443062de292a303c186bc2aac1178ae1b86c62a84610729565b6109f3576040517f08c379a00000000000000000000000000000000000000000000000000000000081526004016109ea90611dc8565b60405180910390fd5b610a1d7f5a3425ea67e73c95853ecfc0c443062de292a303c186bc2aac1178ae1b86c62a83610729565b610a5c576040517f08c379a0000000000000000000000000000000000000000000000000000000008152600401610a5390611d28565b60405180910390fd5b60008111610a9f576040517f08c379a0000000000000000000000000000000000000000000000000000000008152600401610a9690611d68565b60405180910390fd5b6000610aa96105bc565b90508073ffffffffffffffffffffffffffffffffffffffff1663beabacc88585856040518463ffffffff1660e01b8152600401610ae893929190611c79565b600060405180830381600087803b158015610b0257600080fd5b505af1158015610b16573d6000803e3d6000fd5b5050505050505050565b6000610b2a610ff4565b73ffffffffffffffffffffffffffffffffffffffff16610b48610700565b73ffffffffffffffffffffffffffffffffffffffff1614610b9e576040517f08c379a0000000000000000000000000000000000000000000000000000000008152600401610b9590611da8565b60405180910390fd5b6000610ba86105bc565b90508073ffffffffffffffffffffffffffffffffffffffff1663f2fde38b846040518263ffffffff1660e01b8152600401610be39190611c5e565b600060405180830381600087803b158015610bfd57600080fd5b505af1158015610c11573d6000803e3d6000fd5b5050505082915050919050565b6000610c28610ff4565b73ffffffffffffffffffffffffffffffffffffffff16610c46610700565b73ffffffffffffffffffffffffffffffffffffffff1614610c9c576040517f08c379a0000000000000000000000000000000000000000000000000000000008152600401610c9390611da8565b60405180910390fd5b610cc67f5a3425ea67e73c95853ecfc0c443062de292a303c186bc2aac1178ae1b86c62a83610ccf565b60019050919050565b610cd8826104cc565b610ce981610ce4610ff4565b610ffc565b610cf38383611179565b505050565b610d00610ff4565b73ffffffffffffffffffffffffffffffffffffffff16610d1e610700565b73ffffffffffffffffffffffffffffffffffffffff1614610d74576040517f08c379a0000000000000000000000000000000000000000000000000000000008152600401610d6b90611da8565b60405180910390fd5b600073ffffffffffffffffffffffffffffffffffffffff168173ffffffffffffffffffffffffffffffffffffffff161415610de4576040517f08c379a0000000000000000000000000000000000000000000000000000000008152600401610ddb90611d48565b60405180910390fd5b610ded8161125b565b50565b6000610dfa610ff4565b73ffffffffffffffffffffffffffffffffffffffff16610e18610700565b73ffffffffffffffffffffffffffffffffffffffff1614610e6e576040517f08c379a0000000000000000000000000000000000000000000000000000000008152600401610e6590611da8565b60405180910390fd5b610e987f5a3425ea67e73c95853ecfc0c443062de292a303c186bc2aac1178ae1b86c62a83610510565b60019050919050565b6000610eab610ff4565b73ffffffffffffffffffffffffffffffffffffffff16610ec9610700565b73ffffffffffffffffffffffffffffffffffffffff1614610f1f576040517f08c379a0000000000000000000000000000000000000000000000000000000008152600401610f1690611da8565b60405180910390fd5b6002829080600181540180825580915050600190039060005260206000200160009091909190916101000a81548173ffffffffffffffffffffffffffffffffffffffff021916908373ffffffffffffffffffffffffffffffffffffffff160217905550819050919050565b60007f01ffc9a7000000000000000000000000000000000000000000000000000000007bffffffffffffffffffffffffffffffffffffffffffffffffffffffff1916827bffffffffffffffffffffffffffffffffffffffffffffffffffffffff1916149050919050565b600033905090565b6110068282610729565b6110955761102b8173ffffffffffffffffffffffffffffffffffffffff16601461131f565b6110398360001c602061131f565b60405160200161104a929190611c24565b6040516020818303038152906040526040517f08c379a000000000000000000000000000000000000000000000000000000000815260040161108c9190611ce6565b60405180910390fd5b5050565b6110a38282610729565b61117557600180600084815260200190815260200160002060000160008373ffffffffffffffffffffffffffffffffffffffff1673ffffffffffffffffffffffffffffffffffffffff16815260200190815260200160002060006101000a81548160ff02191690831515021790555061111a610ff4565b73ffffffffffffffffffffffffffffffffffffffff168173ffffffffffffffffffffffffffffffffffffffff16837f2f8788117e7eff1d82e926ec794901d17c78024a50270940304540a733656f0d60405160405180910390a45b5050565b6111838282610729565b156112575760006001600084815260200190815260200160002060000160008373ffffffffffffffffffffffffffffffffffffffff1673ffffffffffffffffffffffffffffffffffffffff16815260200190815260200160002060006101000a81548160ff0219169083151502179055506111fc610ff4565b73ffffffffffffffffffffffffffffffffffffffff168173ffffffffffffffffffffffffffffffffffffffff16837ff6391f5c32d9c69d2a47ea670b442974b53935d1edc7fd64eb21e047a839171b60405160405180910390a45b5050565b60008060009054906101000a900473ffffffffffffffffffffffffffffffffffffffff169050816000806101000a81548173ffffffffffffffffffffffffffffffffffffffff021916908373ffffffffffffffffffffffffffffffffffffffff1602179055508173ffffffffffffffffffffffffffffffffffffffff168173ffffffffffffffffffffffffffffffffffffffff167f8be0079c531659141344cd1fd0a4f28419497f9722a3daafe3b4186f6b6457e060405160405180910390a35050565b6060600060028360026113329190611ec0565b61133c9190611e6a565b67ffffffffffffffff81111561137b577f4e487b7100000000000000000000000000000000000000000000000000000000600052604160045260246000fd5b6040519080825280601f01601f1916602001820160405280156113ad5781602001600182028036833780820191505090505b5090507f30000000000000000000000000000000000000000000000000000000000000008160008151811061140b577f4e487b7100000000000000000000000000000000000000000000000000000000600052603260045260246000fd5b60200101907effffffffffffffffffffffffffffffffffffffffffffffffffffffffffffff1916908160001a9053507f780000000000000000000000000000000000000000000000000000000000000081600181518110611495577f4e487b7100000000000000000000000000000000000000000000000000000000600052603260045260246000fd5b60200101907effffffffffffffffffffffffffffffffffffffffffffffffffffffffffffff1916908160001a905350600060018460026114d59190611ec0565b6114df9190611e6a565b90505b60018111156115cb577f3031323334353637383961626364656600000000000000000000000000000000600f861660108110611547577f4e487b7100000000000000000000000000000000000000000000000000000000600052603260045260246000fd5b1a60f81b828281518110611584577f4e487b7100000000000000000000000000000000000000000000000000000000600052603260045260246000fd5b60200101907effffffffffffffffffffffffffffffffffffffffffffffffffffffffffffff1916908160001a905350600485901c9450806115c490611fff565b90506114e2565b506000841461160f576040517f08c379a000000000000000000000000000000000000000000000000000000000815260040161160690611d08565b60405180910390fd5b8091505092915050565b60008135905061162881612069565b92915050565b60008135905061163d81612080565b92915050565b60008135905061165281612097565b92915050565b600081359050611667816120ae565b92915050565b60008151905061167c816120ae565b92915050565b60006020828403121561169457600080fd5b60006116a284828501611619565b91505092915050565b6000806000606084860312156116c057600080fd5b60006116ce86828701611619565b93505060206116df86828701611619565b92505060406116f086828701611658565b9150509250925092565b60006020828403121561170c57600080fd5b600061171a8482850161162e565b91505092915050565b6000806040838503121561173657600080fd5b60006117448582860161162e565b925050602061175585828601611619565b9150509250929050565b60006020828403121561177157600080fd5b600061177f84828501611643565b91505092915050565b60006020828403121561179a57600080fd5b60006117a884828501611658565b91505092915050565b6000602082840312156117c357600080fd5b60006117d18482850161166d565b91505092915050565b6117e381611f4e565b82525050565b6117f281611f60565b82525050565b61180181611f6c565b82525050565b600061181282611e43565b61181c8185611e4e565b935061182c818560208601611fcc565b61183581612058565b840191505092915050565b600061184b82611e43565b6118558185611e5f565b9350611865818560208601611fcc565b80840191505092915050565b600061187e602083611e4e565b91507f537472696e67733a20686578206c656e67746820696e73756666696369656e746000830152602082019050919050565b60006118be602a83611e4e565b91507f746f206973206e6f7420616e20656d706c6f796565206f662074686973206f7260008301527f67616e697a6174696f6e000000000000000000000000000000000000000000006020830152604082019050919050565b6000611924602683611e4e565b91507f4f776e61626c653a206e6577206f776e657220697320746865207a65726f206160008301527f64647265737300000000000000000000000000000000000000000000000000006020830152604082019050919050565b600061198a601d83611e4e565b91507f416d6f756e74206d7573742062652067726561746572207468616e20300000006000830152602082019050919050565b60006119ca602683611e4e565b91507f43616c6c6572206973206e6f7420616e20656d706c6f796565206f722074686560008301527f206f776e657200000000000000000000000000000000000000000000000000006020830152604082019050919050565b6000611a30602083611e4e565b91507f4f776e61626c653a2063616c6c6572206973206e6f7420746865206f776e65726000830152602082019050919050565b6000611a70602c83611e4e565b91507f66726f6d206973206e6f7420616e20656d706c6f796565206f6620746869732060008301527f6f7267616e697a6174696f6e00000000000000000000000000000000000000006020830152604082019050919050565b6000611ad6602183611e4e565b91507f596f752063616e206f6e6c792073656e6420796f7572206f776e20746f6b656e60008301527f73000000000000000000000000000000000000000000000000000000000000006020830152604082019050919050565b6000611b3c601783611e5f565b91507f416363657373436f6e74726f6c3a206163636f756e74200000000000000000006000830152601782019050919050565b6000611b7c601183611e5f565b91507f206973206d697373696e6720726f6c65200000000000000000000000000000006000830152601182019050919050565b6000611bbc602f83611e4e565b91507f416363657373436f6e74726f6c3a2063616e206f6e6c792072656e6f756e636560008301527f20726f6c657320666f722073656c6600000000000000000000000000000000006020830152604082019050919050565b611c1e81611fc2565b82525050565b6000611c2f82611b2f565b9150611c3b8285611840565b9150611c4682611b6f565b9150611c528284611840565b91508190509392505050565b6000602082019050611c7360008301846117da565b92915050565b6000606082019050611c8e60008301866117da565b611c9b60208301856117da565b611ca86040830184611c15565b949350505050565b6000602082019050611cc560008301846117e9565b92915050565b6000602082019050611ce060008301846117f8565b92915050565b60006020820190508181036000830152611d008184611807565b905092915050565b60006020820190508181036000830152611d2181611871565b9050919050565b60006020820190508181036000830152611d41816118b1565b9050919050565b60006020820190508181036000830152611d6181611917565b9050919050565b60006020820190508181036000830152611d818161197d565b9050919050565b60006020820190508181036000830152611da1816119bd565b9050919050565b60006020820190508181036000830152611dc181611a23565b9050919050565b60006020820190508181036000830152611de181611a63565b9050919050565b60006020820190508181036000830152611e0181611ac9565b9050919050565b60006020820190508181036000830152611e2181611baf565b9050919050565b6000602082019050611e3d6000830184611c15565b92915050565b600081519050919050565b600082825260208201905092915050565b600081905092915050565b6000611e7582611fc2565b9150611e8083611fc2565b9250827fffffffffffffffffffffffffffffffffffffffffffffffffffffffffffffffff03821115611eb557611eb4612029565b5b828201905092915050565b6000611ecb82611fc2565b9150611ed683611fc2565b9250817fffffffffffffffffffffffffffffffffffffffffffffffffffffffffffffffff0483118215151615611f0f57611f0e612029565b5b828202905092915050565b6000611f2582611fc2565b9150611f3083611fc2565b925082821015611f4357611f42612029565b5b828203905092915050565b6000611f5982611fa2565b9050919050565b60008115159050919050565b6000819050919050565b60007fffffffff0000000000000000000000000000000000000000000000000000000082169050919050565b600073ffffffffffffffffffffffffffffffffffffffff82169050919050565b6000819050919050565b60005b83811015611fea578082015181840152602081019050611fcf565b83811115611ff9576000848401525b50505050565b600061200a82611fc2565b9150600082141561201e5761201d612029565b5b600182039050919050565b7f4e487b7100000000000000000000000000000000000000000000000000000000600052601160045260246000fd5b6000601f19601f8301169050919050565b61207281611f4e565b811461207d57600080fd5b50565b61208981611f6c565b811461209457600080fd5b50565b6120a081611f76565b81146120ab57600080fd5b50565b6120b781611fc2565b81146120c257600080fd5b5056fea26469706673582212206c81143af90e15181b1571a82ab6edf36ff0496a3d0b02c6979d41caa4cf14df64736f6c63430008000033",
  "linkReferences": {},
  "deployedLinkReferences": {}
}